:020000020000FC
:100000000C9437000C9400000C9400000C94000039
:100010000C9400000C9400000C9400000C94000060
:100020000C9400000C9400000C940000EBC5000040
:100030004FC600000C9400000C9400000C940000CB
:100040000C9400000C9400000C940000C8C5000043
:100050000C940000000853544B3530305F320202DC
:100060000AFF3219010001FFF2FFFFFF01FFCFE598
:10007000D4E0DEBFCDBFA0E6B0E0BA93CA17DB077D
:10008000E0F7EEE5F0E005900D92A037E1F70CE621
:1000900002BB0EEB01BBDABB0FEF0BBBD7BBD8BB70
:1000A000D4BBD5BB02E70CBF02E009BF0BE003BF26
:1000B00003E009B908E90AB97894C0E6D0E00B8DED
:1000C000002331F0CAD000EBF2D501ECF0D511C01D
:1000D0001A8D112389F3F6D0E02EDE8FDF8F0A957B
:1000E0000C3310F04ED005C0E5E8F0E0E00FFD1F46
:1000F00009950D8DDCD5DA8BDB8BDC8BDD8BDD8F11
:10010000DC8FDB8FDA8FD98FD7CF3FC048C05BC081
:1001100038C037C06FC035C034C033C032C031C002
:1001200030C02FC02EC02DC0DBC001C10AC12CC100
:100130009FC12CC19CC113C117C111C115C114C1EC
:1001400013C168C01EC01DC013C22EC239C285C2F1
:10015000DDC2F8C222C35FC24BC274C245C23AC2FA
:100160003CC253C00EC00DC08BC3AEC3B9C3C8C31D
:1001700019C43AC46EC484C497C4A3C4ACC4B2C482
:10018000B7C401E06BD009EC92C50BE067D0E4E5A1
:10019000F0E03AE005918BD53A95E1F708958DD0DE
:1001A000E92F5BD0EF70FF27E63009F48770EE305F
:1001B00031F48823808111F0886001C0877FE05A84
:1001C000FF4F808373C506B30D877CD0E02FEF719E
:1001D000FF27E4FD05C009E0EE2331F0002704C04D
:1001E000EF70E05AFF4F0081802F03E037D05ED5DB
:1001F000082F5DC562D08093A2009093A3005DD0CC
:100200008093A0009093A100E3C1A0E8B0E040E299
:100210004DD0DEC147E048D079B286B293B2A0B2E9
:100220000ABA1BBA27BA38BA44BA55BA162D14728C
:1002300002B30B7D012B02BB07E010D037D5072D91
:1002400036D5082D34D5092D32D50A2D30C576D4B2
:100250008C010D5F1F4F03D029C502E010E09F9372
:100260008F93C8010BE123D5088D21D5092F1FD508
:10027000082F1DD50EE01BD50E2D19D58F919F91FE
:1002800008950091A00008BB0091A0001091A1006A
:100290002091A2000F5F1F4F2F4F0093A0001093DB
:1002A000A1002093A2000895B0E0A0E09D010AD033
:1002B000D9010D934A95D1F7089504D0902F02D01B
:1002C000802F08950A891B89AC89BD890A171B07ED
:1002D000C9F31196AC8BBD8BA150BF4F0C91089503
:1002E00013D1939A4BE0E0DF95989298012D7FD43B
:1002F00000EB07BBD8BB929A012D79D43A94A1F0B8
:10030000072DD7D0082DD5D0092DD3D0002E0A2DFA
:10031000D0D0202E062D033011F4202C02C0002353
:1003200011F0251409F754C198DFBCD401C050D195
:10033000959AD7BBD8BBD5BDDDB9DFBDDEBD9298E0
:100340000895BBDF092F53D4F2D0882329F0CFD0F2
:1003500029F083DF00E8ABC4092F49D439C1E7D0C5
:1003600003E010E078DFA2C4ADDF802FE2D0902E52
:100370009FD0802E04E010E06EDF833011F4092D51
:1003800001C0082D94D492C455E501C05AEA49E051
:100390008BDF6091A0007091A10018E0A12EBB241A
:1003A000882799270091A30007FDC9D020FE37C0F8
:1003B0000DC088DF902E042DD2D0553509F44A2483
:1003C00080FD02C05A3A09F45FDF0196811590055D
:1003D00080F327FE27C0052D6CD0072F6AD0062F8B
:1003E00068D066D0022D007F05FF01C001E11BD05F
:1003F00019C068DF902E042DB2D0553509F44A2477
:10040000022D981419F403FD01C002E00CD0BB20AA
:1004100049F480FD02C05A3A09F436DF019681158D
:10042000900538F370C1F32C00FD07C003FD1AC01E
:1004300001FDDFC302FD07C0DCC306FD13C004FDE0
:10044000D8C305FFD6C3FF24F094062D553521F4FB
:10045000042D087006290A257AD0091539F0FF20E5
:10046000A1F702C045D011F000E8B02E089500E0D9
:10047000502E23DF27DF402E6090A30067FC5FD063
:10048000E7DE13C063D013D4552029F0042D086093
:100490005ED00DD40197F8DE67FE07C0112329F462
:1004A0000091A000002309F44AD001975AF7FEC337
:1004B00000271DB1112339F01EB11FB10FB9779B71
:1004C000FECF0FB10895A02FB8E0A7FB16F4C59A90
:1004D00001C0C598AA0F08858FD3B699A160C79AA5
:1004E00008858AD3C798BA9581F70A2F0895F82E00
:1004F00000EFDFDFDDDFDCDFDBDF00FB16F4FF20FA
:10050000B9F7FF240170089528E11F810E8125BDF0
:1005100013BD0770086105BD10916800143020F408
:10052000C49ABC9A106501C011271DB90895CADE8E
:10053000C0DFC8DEBEDFC6DEBCDFC4DEBACF0DE47E
:10054000B8DFB6DF0091A200B4DFB2CF042DB1DF77
:100550000091A100AEDF0091A000ABDFA9CFA9DF21
:100560000091A100A6DF0091A000A3DF092DA1CF7B
:100570007FD1DDB9D5BD9598939A97981EE02DEF60
:1005800015BB24BB44E090DE002D31D3929A33207A
:1005900019F444D12A94E9F792980FEF08BB07BBEE
:1005A000939801E024D314C0939ADFBDDEBDD8BB7D
:1005B000D7BBD5BBD4BB959A002719D3929A08C054
:1005C0007CDE00E8F8D015D1082F30D109F46CC3D7
:1005D00044DE6CC305D01CA91CC002D01DA919C0E3
:1005E00008E0E9D018A1ECC004E0E5D01DA911C0D5
:1005F00004E0E1D067DE1CA9002359F01FA90A9589
:1006000041F01EA90A9529F01DA90A9511F000ECE8
:10061000EBCDDDD0E9CD56DE802F00E4CFD052DE29
:10062000E6D218A9882339F019A98A9521F01AA9C8
:100630008A9509F001C0DED010DE44DEF7D009F45F
:1006400033C334C33FDE00E2B9D03CDED2D03ADE61
:10065000000FECD009F428C3BBCFBB24A090A100AD
:1006600051E02BDE1C0129DE092E182E00E1A3D05B
:10067000B101002D00FF14C00E7009F0ECD076958A
:10068000679530C01DA19CD019A915BB00E0B4D25C
:10069000AED0CBD011F401E8B02E6250704099F189
:1006A000B3D0A7D0C2D071F7F6CF18A115BBE9DD42
:1006B000B5D01CA115BB06DE85D01DA181D094D07C
:1006C00001979AF707FE0EC019A115BB0A2D7AD023
:1006D0000091A30007FF05C01AA115BB0091A2005D
:1006E00071D087D0515032F0CB019FD049F701E84B
:1006F000B02EE6CF002D06FF06C097D011F401E81A
:10070000B02E00E058D0A9DD0B2DD1C20090A3007F
:10071000D4DD02E050D007FA2EF41AA115BB2281D5
:1007200028BB7CD06DD07AD093DD09C018A115BB51
:100730004BD0BDD201971AF01FA949D0B8D201976A
:10074000AAF7B4C251E0BB24B8DD1C01B6DD092E06
:10075000182E002D0E7021F07ED002C007FC49D06B
:100760005150A2F062D011F401E8B02E01E123D083
:10077000CB0101C039D001978AF346D000FAD6F3F5
:1007800038D053D0C1F701E8B02EF5CF06FA26F4E1
:100790004CD011F401E8B02EB6CF8FDD59DD03E067
:1007A0000AD006C02DD03AD018A115BB0DD07FD2EB
:1007B0000197C2F77BC218A515BB04C0FCDF1CA1C2
:1007C00015BB80DD08BB2AC05CDD28D01CA915BB89
:1007D000D7BB0FEF08BB0491049106B318A115BB5A
:1007E0001FEF17BBD8BB089518AD15BB14911DA5FD
:1007F00005C018A915BB02E0FFD118A115BB0895CB
:100800000091A10019A108C0FBDF08D03ADD18A1B2
:1008100015BB04D057DD1CA108BB15BB0491049186
:10082000979A1097109797980895012D1AE00F92B4
:100830001F92109FD0011F900F90002331F49894C5
:10084000089503E6D9D1119712F0999BFACF99999F
:10085000F6CF18940895502D61E070E056955770CA
:10086000660F771F369427945A95D1F7522D089525
:1008700001E20FBD07EBD9BD08BD01E00EBD089533
:10088000F7DF1DB8929AD5BD9598939A979848E04E
:100890000BDD3E8A929A002DAAD1D8BB07E007BB98
:1008A000002DAAD1442021F42AE07BD1442021F05C
:1008B000002DA2D1252D75D19298002D9DD1939810
:1008C00003E695D100E084CE939A092F90D1929AB5
:1008D000D7BBD8BBD4BBD5BB082F89D1959A78CECE
:1008E000ECDC18A10CA92BD109D1992321F0082FF8
:1008F0007ED123D1DBC121D1082F59D1D9F7D4C161
:10090000BB2451E0DADC1C01D8DC092E182E18A11A
:100910000FA915D1B101002D00FF12C00E7009F012
:100920009ADF769567952EC0CDDC1CA108D106E034
:100930003CD111F401E8B02EA7DC6250704089F17F
:100940001AA10091A100FBD019A10091A000DFD055
:1009500005E02BD149F7EECFD7D0B4DC1CA1EFD006
:1009600001E1D9D00197C2F7002D07FF0BC01AA1F2
:100970004091A0005091A10041505040052FDFD080
:1009800005E0C9D0515032F0CB0110D159F701E840
:10099000B02EE8CF002D06FFB6CE08D111F401E845
:1009A000B02EB1CE8ADC18A170E00BAD50DC19C0BE
:1009B0000E890A95102F000F000F010F1DD119A1EC
:1009C0000091A000BCD0772329F41AA10091A100C6
:1009D000B6D071E018A5C6D06AD119A5C3D067D129
:1009E00053DC02972AF762C1BB2451E066DC1C018C
:1009F00069DC002E67DC102E002D0E7031F02BDF2D
:100A000004C007FA16F405E086D05150DAF0CED0D3
:100A100011F401E8B02E18A108AD91D0CB0102C0AD
:100A200002E179D001976AF31AA10091A10087D061
:100A30006BD000FAAEF305E06ED0B8D099F701E8BC
:100A4000B02EF0CF06FA26F4B1D011F401E8B02EA2
:100A50005ACE33DC18A170E00CADF9DB0EC014DC0B
:100A6000A80119A16CD0772329F41AA10091A10043
:100A700066D071E01EA576D01AD1019782F716C113
:100A800021DC002311F485E005C0013011F486E07B
:100A900001C087E018A10DA93AD0082F30D012DC90
:100AA00086D009F401C102C10DDC802F18A10AAD66
:100AB00046D090E00B96FC01E05EFE4F108152D0D4
:100AC00093CB00DC18A10EA922D018D0FBDB6FD08D
:100AD00009F4EAC0EBC0F6DB18A10EAD30D018A9BE
:100AE00041D082CB18A109AD0BD01AA53BD07CCB4D
:100AF00018A10DAD05D01FA535D076CB05E00BD0E4
:100B00001ED0E0DB19A11BC0BFDBA80119A117D0C3
:100B1000D9DB1BA114C08F93802FA0E8B0E0A00FF9
:100B2000BD1F1C910BD0A0E8B0E0A80FBD1F0C9119
:100B30001BA9102B03D08F91089518A100E038E075
:100B40002ED017FB16F4C19A01C0C19807FB16F40A
:100B5000C09A01C0C098000F110F21D03A9589F7B3
:100B60001ED01DC09F938F93912F88E0C098E6DF21
:100B70003BA9392B00E0B29901E011D037FB16F404
:100B8000C19A01C0C198000FB2990395330F07D0E5
:100B90008A95A1F704D003D08F919F9108952E8953
:100BA00001C03EDE2150EAF70895B5DF012DB02FD8
:100BB000402F0AE00F921F92409F002D1F900F9030
:100BC000A02FBB2331F49894089503E615D0A150CB
:100BD00012F0B29BFACFB299F6CF189408958F9382
:100BE0008FB7FF2009F0FA948FBF8F911895F02EE0
:100BF000F394FF20F1F7189514911491149101507A
:100C0000DAF718959F938F93FF93EF934F934FB716
:100C10008CB19C8D98279C8F998D992301F19A9581
:100C200019F19A9521F19A9529F19A9531F19A95B0
:100C300019F09A9571F526C0EA89FB893196EA8BFD
:100C4000FB8BE150FF4F80838A899B89E889F98972
:100C50008E179F0710F485E01DC086E01BC08B3106
:100C6000C1F48C8F81E016C0888F82E013C0898B1D
:100C700083E010C0888B84E00DC08E3051F4DA8B95
:100C8000DB8BE9CF8C8D882381E011F48A8F01C042
:100C90008B8F80E0898F4FBF4F91EF91FF918F91A4
:100CA0009F91189500EC03C001E801C000E0B0E09E
:100CB000AE8DA395AF731F8DA117E9F31A2FA05521
:100CC000BF4F0C931E8F559A1D8D10271D8F1895A1
:100CD000FF93EF932F932FB7FE8DEF8DFE1711F437
:100CE000559808C0E395EF73EF8FF0E0E055FF4FA4
:0E0CF000E081ECB92FBF2F91EF91FF91189585
:00000001FF
