:020000020000FC
:100000000C94820098C200000C9400000C94000034
:100010000C9400000C9400000C9400000C94000060
:100020000C9400000C9400000C9400000C94000050
:100030000C9400000C9400000C9400000C94000040
:100040000C9400000C9400000C940000A9C3000064
:100050000C9400000403090412036F0062006400A2
:10006000650076002E0061007400160350007200D7
:100070006F006700720061006D006D006500720026
:10008000140355006E00690076006500720073006D
:1000900061006C001201100102000008C016E105A9
:1000A000000101020301090243000201008064090A
:1000B00004000001020201000524001001042402D2
:1000C0000205240600010524010301070583030836
:1000D000000109040100020A0000000705010208EE
:1000E000000007058102080000000853544B35301A
:1000F000305F320002020AFF3219010001FFF2FFF5
:10010000FFFF01FFCFE5D4E0DEBFCDBFA0E6B0E04A
:10011000BA93CA17DB07E0F7E4EFF0E050960590DA
:100120000D92A038E1F70FEF13EF23EB22BB11BBC9
:100130000BBB1ABA08BB17BA05BB14BA04E648EBE6
:100140005BE08B9ACA010197F1F70150D9F78B98C0
:100150001BEB1CBF2BE023BF32E039BF83E085BF20
:1001600080E48BBF8BE49AE58093E30280930E03D7
:100170009093E20290930D037894112453D08091D0
:1001800067008535A1F410926700C2E0D0E080914D
:1001900097008093B5011092B60181508C3310F016
:1001A000A9D105C0E7E0F4E0E80FF11D09958091C1
:1001B000E20284FFE2CFA4EEB2E0772780916C00E8
:1001C00090916D000097E9F0E0916A00F0916B006A
:1001D0003196E0936A00F0936B00E817F90750F04E
:1001E0008827992780936A0090936B0080936C0016
:1001F00090936D00E155FE4F10811D9373957830FB
:1002000009F760916900672B61F070936900A2EEB5
:10021000B2E0672F7C5F7D938C9198E889278D935E
:10022000FBD0ABCF6091F302635067FDA4C0809117
:10023000F002E3E0F3E0E81BF1098091EF02803186
:1002400030F4162F2191FDD01150E1F792C0C8ED86
:10025000D2E08D3229F08091680087FF8AC07DC08E
:100260006830A1F783EC8093D7029AE59093600001
:1002700010926800908181817281638156814781EB
:10028000192F907699F02227903279F43091D60286
:10029000332359F4823248F41092D5022FEF17FD20
:1002A000252F30E83093680054C04FC0882311F4E4
:1002B00022E045C0853019F47093F4023FC08630C7
:1002C00061F4613021F484E990E022E12CC06230D5
:1002D00081F486EA90E023E426C021E0883019F416
:1002E00086EF92E02EC0893009F428C08A30F9F4F4
:1002F00026C022276330B9F4772321F484E590E007
:1003000024E011C0813021F488E590E022E10BC0A7
:10031000823021F48AE690E026E105C0833019F4AA
:1003200080E890E024E1A0E4A09368000AC08B304C
:1003300029F48BE48093E30280930E03222780EE5E
:1003400092E09093F2028093F102442311F4521749
:1003500008F0522F509361000CC08091D50210928A
:100360006100882331F4DE0187E091919D938150F3
:10037000E1F71092F3028091600084FF42C0809107
:1003800061008F3F09F43DC0182F893008F018E054
:10039000DE01811B80936100112311F180916800BF
:1003A00087FF07C017E08091D5028823C9F0112785
:1003B00017C02091F1023091F202F901210F311D95
:1003C0002093F1023093F202912F86FF05C08591B0
:1003D0008D939150E1F704C081918D939150E1F795
:1003E000DE018091D70298E889278093D702612F98
:1003F00013D01C5F1C3019F08FEF809361001093B5
:10040000600094E180B38C7031F49150D9F7109270
:10041000F4021092EE0218958827992741E050EADD
:1004200060956F5F58F42D9138EF822797958795E7
:1004300010F0842795273F5FC8F3F3CF8D939D93EA
:100440000895BB2021F41092800010928100C09189
:100450008000D0918100209759F42B3169F52093C9
:100460009200C1E0D0E0C0938000D093810024C00E
:1004700031E0C931D307E0F4CE56DF4F2883C259AB
:10048000D0402196C0938000D0938100C530D10523
:1004900098F0A9F42E3061F4C0919500D0919400A9
:1004A0002696C0938200D0938300CA51D14020F099
:1004B000109280001092810088ECB82E08958091EF
:1004C000820090918300C817D907B1F79927A2E954
:1004D000B0E0209759F08D9198272197E1F7992363
:1004E00029F080EB8093B50106D0E6CF85E58093B7
:1004F0006700DECF80ECC2E0D0E08093B6012BE154
:10050000E0EBF1E02083209193002183D283C38329
:100510002EE024832696C0936C00D0936D00219723
:10052000992790936A0090936B0081919827219767
:10053000E1F790830895FFB6DF93CF93C395839B34
:10054000E9F7839B09C0839B07C0839B05C0839BFE
:1005500003C0839B01C09CC0C091F002DD27C9503D
:10056000DD4F8399EECF20972F930F931F9300B306
:100570002FEF03FB20F94F933F9310B34FEF012769
:1005800003FB21F93BE031C04E7F012F10B3216006
:1005900028C0102F4D7F2260000000B329C04B7F80
:1005A0002460012F000010B32BC010B3477F2860D8
:1005B0002AC04F7E00B320612CC04F7D10B3206253
:1005C0002FC04F7B00B3206432C0422700B3499351
:1005D0004FEF0000102713FB20F910B31C70B9F186
:1005E000297F91F2012703FB21F900B3237F89F2D0
:1005F000315058F1102713FB22F910B3277E79F2FE
:10060000012703FB23F92F7C81F200B3102713FB92
:1006100024F92F7971F200C010B3012703FB25F9EB
:100620002F7359F200C000B3102713FB26F92230B4
:1006300040F200C010B3012703FB27F9243028F64D
:100640004F77206810B30000F9CF00271AC03B5045
:100650003195C31BD0400881033CF1F00B34E1F02D
:100660002091EE021981110F1213EFCF4A81441F1E
:10067000093639F10D3211F0013E39F74F7009F0AA
:10068000042F0093F5023F914F911F910F912F91ED
:10069000CF91DF91FFBE18952091F502222399F3A7
:1006A0001091F3021123C1F53430C2F13093F302FB
:1006B0002093EF021091F0023BE0311B3093F002E7
:1006C0002DC00091F30201303CF50AE54F7049F46A
:1006D0003091600034FD24C000936000C7EDD2E08B
:1006E00023C0433049F03091E20234FD19C0009339
:1006F000E202C3EED2E018C030910D0334FD10C009
:1007000000930D03CEE0D3E00FC02795A8F451501D
:10071000A9F4220F0000F9CF4AE503C042ED01C061
:10072000432FC4E1D0E032E011B31C60939A11BBB7
:1007300002B320E41CE05F93012756E002BB27953B
:1007400020F4515021F4220FF9CF012756E0000088
:100750003B5A02BBD0F2279528F4515029F4220FBE
:100760000000F9CF012756E0279502BB20F4515035
:1007700021F4220FF9CF012756E02991332302BB40
:1007800021F6037F1091F402110FC651D04002BB35
:1007900011F01093EE0211B3137F11BB5F9173CF71
:1007A0007894EFB6DD2009F0DA94CC2031F4BB2048
:1007B00029F0CC24C094C694C694CA94EFBE189570
:1007C000D82E8D2D8823E9F7089504900490049085
:1007D0001A94D9F70895A2E0B0E0E8E9F0E0819139
:1007E0008D933A95E1F708958091620088BB00915E
:1007F000620010916300209164000F5F1F4F2F4F24
:1008000000936200109363002093640008953BC03E
:1008100045C059C06FCE6ECE87C06CCE6BCE6ACE4F
:1008200069CE68CE67CE66CE65CE64CE8EC0C2C0BD
:10083000CBC018C1ECC018C1EDC0D3C0D8C0D1C066
:10084000D6C0D5C0D4C056C055CE54CEE0C1FBC131
:1008500004C28BC247C2DEC22FC266C21CC27FC2A4
:1008600017C206C208C2CEC145CE44CE62C383C3FE
:1008700091C360C4DFC32AC4C2C306C4A4C319C4DD
:10088000ADC39BC3B6C387EB91E0DC01EAEEF0E0B9
:1008900005900D920020E1F7CBE031CEE091980079
:1008A00020919900EF70FF27E059FF4FE63709F4D8
:1008B0002777EE3731F42223208111F0286001C020
:1008C000277F20831CCEE0919800FF2736B330931A
:1008D0007D00EF71E4FD05C089E0EE2331F088274B
:1008E00004C0EF70E059FF4F808199278093B701D2
:1008F000C3E005CE37E06FDF99B22ABA3BBA26B221
:1009000047BA58BA33B264BA75BA982D917282B3A5
:100910008E7D892B82BBE7EBF1E09192219231929F
:1009200080B38193C7E0EBCD809198008093650000
:10093000809199008093640080919A008093630075
:1009400080919B0080936200DACD51D145D1919A7C
:1009500037E041DF56949598832D32DF90EA97BBBC
:100960009098832D2DDF909A832D2ADF5A94C1F021
:1009700080919F0000D18091A000FDD08091A100C6
:10098000FAD0682E8091A200F6D0482E982D933090
:1009900011F4462C02C0882311F04714E1F6AFCDC4
:1009A000909A882788BB87BB85BD8DB98FBD8EBDCA
:1009B000959AA0CD909A882788BB87BB85BD8DB9B5
:1009C0008FBD8EBD959A9BCD32E005DF832DF8DE7D
:1009D000C9D0882329F0822DF2D011F080E88BCD88
:1009E0008ECDE8E9F0E0BED0C3E0DD2788CDE8E9B0
:1009F000F0E07191B9D0982EBDD0733009F4892DF3
:100A0000C4E0DD278093B701D093B80178CD3324BB
:100A1000309401C033243327B0919800A0919900FD
:100A200020909A00ED012396E7EBF1E040906500FD
:100A300047FC91D013C085D08193332029F0822DBB
:100A4000886080D081931197D2DE47FE07C066236D
:100A500029F490916200992309F47DD011975AF7F7
:100A600010824DCD55E501C05AEA39E0B4DE6091FF
:100A700062007091630048E0942E4427AA27BB27A8
:100A80008091650087FD67D040FE33C00CC0862D85
:100A9000319158D0553509F46924A0FD02C05A3A65
:100AA00009F4A5DE1196A315B20588F347FE24C00C
:100AB000872D61D0872F5FD0862F5DD05BD0942D9E
:100AC000917F95FD91E11AD017C0862D31913AD0D2
:100AD000553509F46924942D3A1511F493FF92E0E9
:100AE0000DD0442349F4A0FD02C05A3A09F47FDE38
:100AF0001196A315B20548F3842FFFCCD52C90FD99
:100B000007C093FD1AC091FD5CCE92FD07C059CE7F
:100B100096FD13C094FD55CE95FF53CEDD24D094A1
:100B2000882D553521F4862D8870882989250AD08D
:100B3000831731F0DD20A1F702C042D001F040E878
:100B40000895822D18D08091630015D080916200A5
:100B500012D0832F10C08DE40ED00CD08091640091
:100B60000AD008C0819107D0819105D0819103D02E
:100B7000819101C088279DB1992339F09EB19FB121
:100B80008FB9779BFECF8FB1089598E087FB16F45D
:100B9000C59A01C0C598880F10907800012C110CDF
:100BA000101813DEB6998160C79A10907800012C56
:100BB000110C10180ADEC7989A9541F71895D82E8F
:100BC00080EFD9DFD7DFD6DFD5DF80FB16F4DD205D
:100BD000B9F7DD248170189590917800943020F455
:100BE000C49ABC9A906501C099279DB9189528E1CF
:100BF000909177008091760025BD93BD87708861C4
:100C000085BD1895A0E0B4E030E2E7DD2FC07CD1CF
:100C10001DB815BC9598919A97983EE035BB4DEF5D
:100C200044BB34E0D8DD822DCBDD909A552019F4F9
:100C30004BD14A94E9F790989FEF98BB97BB919856
:100C40008827BEDD13C0919A1FBC1EBC18BA17BA04
:100C500015BA14BA959A909A09C03BD180E8FCD095
:100C600051901BD151903AD109F444CC882743CC00
:100C70000AD09C8902C007D09D89FAD0C3E0D0E099
:100C80008093B7013CCC25D188E0E6D09881E9C0BB
:100C900083E0809398001DD184E0DED071919C891F
:100CA000772359F39F897A9541F39E897A9529F3A1
:100CB0009D897A9511F31ECCB0919800A09199006E
:100CC0001D01E7EBF1E0C0E0D4E083E0C5D005C052
:100CD000ECD0988195BBC9D081931197CAF7E101F7
:100CE00023960DCCB0919800A091990050909A0055
:100CF0001D01C0E0D4E04B80E7EBF1E082E0ACD036
:100D000047FA26F49A8195BB58BADCD0CED009C0F8
:100D1000988195BBAAD0819311971AF09F89A8D08A
:100D200081931197AAF7DBCFD4D0719180E497D04B
:100D300088899C85772349F089899D857A9529F052
:100D40008A899E857A9509F004C085BB11903DDDA6
:100D500095BB5190C3D009F4CDCB8827CCCBB9D06B
:100D6000919180E27CD099D0F8CFB3D0319021908E
:100D700041905190442751E060906300D10180E19F
:100D80006BD0842D80FF14C08E7009F433C0C4D0A2
:100D9000769567952FC09D8164D0998995BB8AE02F
:100DA000182E13DD78D09AD009F441E8129771F12A
:100DB00080D073D093D079F7F8CF988195BB14DDAC
:100DC00083D09C8195BB81914ED09D814AD060D0CB
:100DD00011979AF747FE0EC0998195BB862D43D097
:100DE0008091650087FF05C09A8195BB8091640062
:100DF0003AD053D051502AF0DB0170D049F741E886
:100E0000E7CF46FA1EF46AD009F441E8842FC2E025
:100E1000D0E073CB5ED03190219041905190442727
:100E200051E0842D8E7021F077D002C047FC35D080
:100E300051503AF353D009F441E881E10DD0DB0180
:100E400001C026D0119792F334D040FAD6F325D0C2
:100E500045D0C1F741E8F6CF988595BB04C0FCDFCB
:100E60009C8195BB819188BB2DC0BEDC2BD09C8919
:100E700080E087BB8FEF88BB95BB11241394A5DC62
:100E800086B3988195BB9FEF97BB90E098BB089580
:100E9000988D95BB94919D8506C0988995BB83E0FC
:100EA000182E93DC9C8595BB0895809163009981F1
:100EB00007C0FBDF99DC988195BB04D081919C81B0
:100EC00088BB95BB84918491979A009700979798D7
:100ED0000895E8E9F0E0C0E0D4E008959AE0F894DD
:100EE000959D900111247894552041F4989408958B
:100EF00084E6182E6ADC2150304012F0999BF8CF1E
:100F00009999F4CF1894089581E28FBD87E719BCB1
:100F100088BD81E08EBD0895542D61E070E0569546
:100F20005770660F771F369427945A95D1F7522D34
:100F30000895EADF1DB815BC9598919A979838E006
:100F40004ADC50926600909A822D3ADC90E098BB81
:100F500087E087BB662031F4242D93D1832D30DCCC
:100F6000272D8FD19098142C30DC9198822D28DC7D
:100F7000BA98C29AC4CA9098919A32E02CDC1FBCED
:100F80001EBC122C22DC18BA959A832D19DC909A7B
:100F900017BAB5CA9EDF98818C892CD10ED1919158
:100FA000992331F081910CDC23D1C2E0D0E0A7CAB3
:100FB0001FD181914FD1C9F79DCA8BDF9881898D4F
:100FC000FED09A8510C085DF98818A8D13D1A191BA
:100FD000B0E01B96AC0FBD1F9C9105C07ADF9881D5
:100FE0008E8D08D198891BD1C3E0D0E08093B701E2
:100FF00086CA6FDF98818D8DE2D09F85F4CF69DF3F
:10100000B191A1911D01E7EBF1E070E098818C8D29
:10101000F1D00DC0ECDB9981EDD0772329F48091DC
:1010200063009A81E7D071E09E85F9D08193119792
:101030008AF727C04EDFB191A1911D01E7EBF1E0E6
:1010400070E098818B8DD6D01AC0109066001A94EB
:10105000012C110C110C100CB8DB998180916200ED
:10106000C9D0772329F49A8180916300C3D071E0BD
:101070009885D5D081939985D2D08193B8DB12978A
:1010800022F7E10123963BCA24DF75E061916623D4
:1010900021F076E0613009F077E098818D8995D074
:1010A000872F8CD08191D6D0C2E0D0E009F422CA3B
:1010B00026CA0FDF719198818E8987D07ED0819169
:1010C000C9D0C2E0D0E009F415CA19CA02DF44272A
:1010D00051E03190219041905190842D8E7031F0EB
:1010E0001BDF04C047FA16F485E073D05150CAF0F4
:1010F000B0D009F441E89881888D7CD0DB0102C032
:1011000082E167D0119772F399818091630072D068
:101110005AD040FAAEF385E05CD09BD099F741E815
:10112000F1CF46FA1EF495D009F441E8842FC2E0CD
:10113000D0E0E3C9CEDE442751E0319021904190C8
:10114000519080906300B101D10198818F8952D074
:1011500076956795842D80FF10C08E7009F425C0A8
:10116000DBDE7695679521C081919C8143D086E036
:101170006FD009F441E81297A1F29A81809163003F
:1011800039D021D085E064D079F7F4CF1CD081919B
:101190009C8130D081E11DD01197C2F747FE05C078
:1011A0009A81882D27D085E014D051502AF0DB0198
:1011B00050D091F741E8F0CFB4CF85E00AD01AD0F3
:1011C0008191998117C013DB998114D081919B8102
:1011D00011C0082E3D01DE01A80FB11D9C9109D060
:1011E000DE01A00DB11D8C919B89982BD30101C00C
:1011F000988180E018BA38E042D097FB16F4C19A83
:1012000001C0C19887FB16F4C09A01C0C098880F2E
:10121000990F35D03A9589F718BA31D030C0192FC7
:10122000E8DF9B89912B38E08827B299839527D0F6
:1012300097FB16F4C19A01C0C198880FB2998395A3
:10124000990F1DD03A95A1F718BA19D018D0089562
:10125000C0DF852D2AE0F894289F202D1124789452
:10126000882339F49894089584E6182EAEDA215034
:1012700012F0B29BF9CFB299F5CF1894089520914E
:0A128000660022DE2150E9F7089510
:00000001FF
